{"abi":[{"type":"function","name":"__CreateSpace_init","inputs":[],"outputs":[],"stateMutability":"nonpayable"},{"type":"function","name":"createSpace","inputs":[{"name":"spaceInfo","type":"tuple","internalType":"struct IArchitectBase.SpaceInfo","components":[{"name":"name","type":"string","internalType":"string"},{"name":"uri","type":"string","internalType":"string"},{"name":"shortDescription","type":"string","internalType":"string"},{"name":"longDescription","type":"string","internalType":"string"},{"name":"membership","type":"tuple","internalType":"struct IArchitectBase.Membership","components":[{"name":"settings","type":"tuple","internalType":"struct IMembershipBase.Membership","components":[{"name":"name","type":"string","internalType":"string"},{"name":"symbol","type":"string","internalType":"string"},{"name":"price","type":"uint256","internalType":"uint256"},{"name":"maxSupply","type":"uint256","internalType":"uint256"},{"name":"duration","type":"uint64","internalType":"uint64"},{"name":"currency","type":"address","internalType":"address"},{"name":"feeRecipient","type":"address","internalType":"address"},{"name":"freeAllocation","type":"uint256","internalType":"uint256"},{"name":"pricingModule","type":"address","internalType":"address"}]},{"name":"requirements","type":"tuple","internalType":"struct IArchitectBase.MembershipRequirements","components":[{"name":"everyone","type":"bool","internalType":"bool"},{"name":"users","type":"address[]","internalType":"address[]"},{"name":"ruleData","type":"bytes","internalType":"bytes"},{"name":"syncEntitlements","type":"bool","internalType":"bool"}]},{"name":"permissions","type":"string[]","internalType":"string[]"}]},{"name":"channel","type":"tuple","internalType":"struct IArchitectBase.ChannelInfo","components":[{"name":"metadata","type":"string","internalType":"string"}]}]}],"outputs":[{"name":"","type":"address","internalType":"address"}],"stateMutability":"nonpayable"},{"type":"function","name":"createSpaceV2","inputs":[{"name":"spaceInfo","type":"tuple","internalType":"struct IArchitectBase.CreateSpace","components":[{"name":"metadata","type":"tuple","internalType":"struct IArchitectBase.Metadata","components":[{"name":"name","type":"string","internalType":"string"},{"name":"uri","type":"string","internalType":"string"},{"name":"shortDescription","type":"string","internalType":"string"},{"name":"longDescription","type":"string","internalType":"string"}]},{"name":"membership","type":"tuple","internalType":"struct IArchitectBase.Membership","components":[{"name":"settings","type":"tuple","internalType":"struct IMembershipBase.Membership","components":[{"name":"name","type":"string","internalType":"string"},{"name":"symbol","type":"string","internalType":"string"},{"name":"price","type":"uint256","internalType":"uint256"},{"name":"maxSupply","type":"uint256","internalType":"uint256"},{"name":"duration","type":"uint64","internalType":"uint64"},{"name":"currency","type":"address","internalType":"address"},{"name":"feeRecipient","type":"address","internalType":"address"},{"name":"freeAllocation","type":"uint256","internalType":"uint256"},{"name":"pricingModule","type":"address","internalType":"address"}]},{"name":"requirements","type":"tuple","internalType":"struct IArchitectBase.MembershipRequirements","components":[{"name":"everyone","type":"bool","internalType":"bool"},{"name":"users","type":"address[]","internalType":"address[]"},{"name":"ruleData","type":"bytes","internalType":"bytes"},{"name":"syncEntitlements","type":"bool","internalType":"bool"}]},{"name":"permissions","type":"string[]","internalType":"string[]"}]},{"name":"channel","type":"tuple","internalType":"struct IArchitectBase.ChannelInfo","components":[{"name":"metadata","type":"string","internalType":"string"}]},{"name":"prepay","type":"tuple","internalType":"struct IArchitectBase.Prepay","components":[{"name":"supply","type":"uint256","internalType":"uint256"}]}]},{"name":"options","type":"tuple","internalType":"struct IArchitectBase.SpaceOptions","components":[{"name":"to","type":"address","internalType":"address"}]}],"outputs":[{"name":"","type":"address","internalType":"address"}],"stateMutability":"payable"},{"type":"function","name":"createSpaceWithPrepay","inputs":[{"name":"spaceInfo","type":"tuple","internalType":"struct IArchitectBase.CreateSpaceOld","components":[{"name":"metadata","type":"tuple","internalType":"struct IArchitectBase.Metadata","components":[{"name":"name","type":"string","internalType":"string"},{"name":"uri","type":"string","internalType":"string"},{"name":"shortDescription","type":"string","internalType":"string"},{"name":"longDescription","type":"string","internalType":"string"}]},{"name":"membership","type":"tuple","internalType":"struct IArchitectBase.MembershipOld","components":[{"name":"settings","type":"tuple","internalType":"struct IMembershipBase.Membership","components":[{"name":"name","type":"string","internalType":"string"},{"name":"symbol","type":"string","internalType":"string"},{"name":"price","type":"uint256","internalType":"uint256"},{"name":"maxSupply","type":"uint256","internalType":"uint256"},{"name":"duration","type":"uint64","internalType":"uint64"},{"name":"currency","type":"address","internalType":"address"},{"name":"feeRecipient","type":"address","internalType":"address"},{"name":"freeAllocation","type":"uint256","internalType":"uint256"},{"name":"pricingModule","type":"address","internalType":"address"}]},{"name":"requirements","type":"tuple","internalType":"struct IArchitectBase.MembershipRequirementsOld","components":[{"name":"everyone","type":"bool","internalType":"bool"},{"name":"users","type":"address[]","internalType":"address[]"},{"name":"ruleData","type":"bytes","internalType":"bytes"}]},{"name":"permissions","type":"string[]","internalType":"string[]"}]},{"name":"channel","type":"tuple","internalType":"struct IArchitectBase.ChannelInfo","components":[{"name":"metadata","type":"string","internalType":"string"}]},{"name":"prepay","type":"tuple","internalType":"struct IArchitectBase.Prepay","components":[{"name":"supply","type":"uint256","internalType":"uint256"}]}]}],"outputs":[{"name":"","type":"address","internalType":"address"}],"stateMutability":"payable"},{"type":"function","name":"createSpaceWithPrepay","inputs":[{"name":"spaceInfo","type":"tuple","internalType":"struct IArchitectBase.CreateSpace","components":[{"name":"metadata","type":"tuple","internalType":"struct IArchitectBase.Metadata","components":[{"name":"name","type":"string","internalType":"string"},{"name":"uri","type":"string","internalType":"string"},{"name":"shortDescription","type":"string","internalType":"string"},{"name":"longDescription","type":"string","internalType":"string"}]},{"name":"membership","type":"tuple","internalType":"struct IArchitectBase.Membership","components":[{"name":"settings","type":"tuple","internalType":"struct IMembershipBase.Membership","components":[{"name":"name","type":"string","internalType":"string"},{"name":"symbol","type":"string","internalType":"string"},{"name":"price","type":"uint256","internalType":"uint256"},{"name":"maxSupply","type":"uint256","internalType":"uint256"},{"name":"duration","type":"uint64","internalType":"uint64"},{"name":"currency","type":"address","internalType":"address"},{"name":"feeRecipient","type":"address","internalType":"address"},{"name":"freeAllocation","type":"uint256","internalType":"uint256"},{"name":"pricingModule","type":"address","internalType":"address"}]},{"name":"requirements","type":"tuple","internalType":"struct IArchitectBase.MembershipRequirements","components":[{"name":"everyone","type":"bool","internalType":"bool"},{"name":"users","type":"address[]","internalType":"address[]"},{"name":"ruleData","type":"bytes","internalType":"bytes"},{"name":"syncEntitlements","type":"bool","internalType":"bool"}]},{"name":"permissions","type":"string[]","internalType":"string[]"}]},{"name":"channel","type":"tuple","internalType":"struct IArchitectBase.ChannelInfo","components":[{"name":"metadata","type":"string","internalType":"string"}]},{"name":"prepay","type":"tuple","internalType":"struct IArchitectBase.Prepay","components":[{"name":"supply","type":"uint256","internalType":"uint256"}]}]}],"outputs":[{"name":"","type":"address","internalType":"address"}],"stateMutability":"payable"},{"type":"event","name":"Architect__ProxyInitializerSet","inputs":[{"name":"proxyInitializer","type":"address","indexed":true,"internalType":"address"}],"anonymous":false},{"type":"event","name":"Initialized","inputs":[{"name":"version","type":"uint32","indexed":false,"internalType":"uint32"}],"anonymous":false},{"type":"event","name":"InterfaceAdded","inputs":[{"name":"interfaceId","type":"bytes4","indexed":true,"internalType":"bytes4"}],"anonymous":false},{"type":"event","name":"InterfaceRemoved","inputs":[{"name":"interfaceId","type":"bytes4","indexed":true,"internalType":"bytes4"}],"anonymous":false},{"type":"event","name":"Paused","inputs":[{"name":"account","type":"address","indexed":false,"internalType":"address"}],"anonymous":false},{"type":"event","name":"SpaceCreated","inputs":[{"name":"owner","type":"address","indexed":true,"internalType":"address"},{"name":"tokenId","type":"uint256","indexed":true,"internalType":"uint256"},{"name":"space","type":"address","indexed":true,"internalType":"address"}],"anonymous":false},{"type":"event","name":"Unpaused","inputs":[{"name":"account","type":"address","indexed":false,"internalType":"address"}],"anonymous":false},{"type":"error","name":"Architect__InvalidAddress","inputs":[]},{"type":"error","name":"Architect__InvalidNetworkId","inputs":[]},{"type":"error","name":"Architect__InvalidPricingModule","inputs":[]},{"type":"error","name":"Architect__InvalidStringLength","inputs":[]},{"type":"error","name":"Architect__NotContract","inputs":[]},{"type":"error","name":"Initializable_InInitializingState","inputs":[]},{"type":"error","name":"Initializable_NotInInitializingState","inputs":[]},{"type":"error","name":"Introspection_AlreadySupported","inputs":[]},{"type":"error","name":"Introspection_NotSupported","inputs":[]},{"type":"error","name":"Pausable__NotPaused","inputs":[]},{"type":"error","name":"Pausable__Paused","inputs":[]},{"type":"error","name":"Reentrancy","inputs":[]},{"type":"error","name":"Validator__InvalidAddress","inputs":[]}],"bytecode":{"object":"0x608060405234801561001057600080fd5b5061001961001e565b6100c4565b7f59b501c3653afc186af7d48dda36cf6732bd21629a6295693664240a6ef520008054640100000000900460ff161561006a576040516366008a2d60e01b815260040160405180910390fd5b805463ffffffff90811610156100c157805463ffffffff191663ffffffff90811782556040519081527fe9c9b456cb2994b80aeef036cf59d26e9617df80f816a6ee5a5b4166e07e2f5c9060200160405180910390a15b50565b612d4680620000d46000396000f3fe608060405260043610620000505760003560e01c8063162dc0d71462000055578063c07ed896146200006f578063cd55d94c14620000a2578063e0d1ce8f14620000b9578063f822028d14620000d0575b600080fd5b3480156200006257600080fd5b506200006d620000f5565b005b6200008662000080366004620017cd565b62000154565b6040516001600160a01b03909116815260200160405180910390f35b62000086620000b336600462001b5b565b6200025e565b62000086620000ca36600462001b93565b620002ec565b348015620000dd57600080fd5b5062000086620000ef36600462001c09565b62000359565b7f59b501c3653afc186af7d48dda36cf6732bd21629a6295693664240a6ef5200054640100000000900460ff166200014057604051630ef4733760e31b815260040160405180910390fd5b620001526302bb19bb60e31b620003d4565b565b60003068929eee149b4bd212685403620001765763ab143c066000526004601cfd5b3068929eee149b4bd212685560008051602062002d268339815191525460ff1615620001b5576040516302ca8ced60e11b815260040160405180910390fd5b604080516080808201835260208086018051820151511515845280518201518201518285015280518201518501518486015260006060808601919091528551808201875282515181528084018690529151860151828701528551938401865287518452838301829052878601518487015280880151908401528451918201909452338152919291620002488282620004af565b3868929eee149b4bd21268559695505050505050565b60003068929eee149b4bd212685403620002805763ab143c066000526004601cfd5b3068929eee149b4bd212685560008051602062002d268339815191525460ff1615620002bf576040516302ca8ced60e11b815260040160405180910390fd5b6040805160208101909152338152620002d98382620004af565b3868929eee149b4bd21268559392505050565b60003068929eee149b4bd2126854036200030e5763ab143c066000526004601cfd5b3068929eee149b4bd212685560008051602062002d268339815191525460ff16156200034d576040516302ca8ced60e11b815260040160405180910390fd5b620002d98383620004af565b60003068929eee149b4bd2126854036200037b5763ab143c066000526004601cfd5b3068929eee149b4bd212685560008051602062002d268339815191525460ff1615620003ba576040516302ca8ced60e11b815260040160405180910390fd5b6040805160208101909152338152620002d98382620005a5565b6001600160e01b0319811660009081527f81088bbc801e045ea3e7620779ab349988f58afbdfba10dff983df3f33522b00602052604090205460ff166200045e576001600160e01b0319811660009081527f81088bbc801e045ea3e7620779ab349988f58afbdfba10dff983df3f33522b0060205260409020805460ff1916600117905562000477565b604051637967f77d60e11b815260040160405180910390fd5b6040516001600160e01b03198216907f78f84e5b1c5c05be2b5ad3800781dd404d6d6c6302bc755c0fe20f58a33a7f2290600090a250565b6000620004c9836020015160000151610100015162000a99565b8151620004d69062000a99565b6040805160c081018252845151815284516020908101518183015285518301518284015285516060908101519083015285015160808201529084015160a0820152620005238184620005a5565b606085015151909250156200059e576060840151516040516306499d7f60e01b81526001600160a01b038416916306499d7f913491620005699160040190815260200190565b6000604051808303818588803b1580156200058357600080fd5b505af115801562000598573d6000803e3d6000fd5b50505050505b5092915050565b7f9e34afa7b4d27d347d25d9d9dab4f1a106fa081382e6c4243e834d093e787d00805460408051631d5e528f60e21b815290516000937f06bd04a817647c31ee485c8a0baab96facd62dbfd4b475796bb17ca2c12f000093909285926001600160a01b03909216916375794a3c916004808201926020929091908290030181865afa15801562000639573d6000803e3d6000fd5b505050506040513d601f19601f820116820180604052508101906200065f919062001d40565b9050620006728187608001518762000ac4565b8354600190810185556000838152600286016020908152604080832080546001600160a01b0319166001600160a01b03878116918217909255845293880182529182902085905585548a51918b01518b84015160608d01519451630efd6e3d60e21b8152969a509190941694633bf5b8f494620006f99490928b9290919060040162001dae565b6020604051808303816000875af115801562000719573d6000803e3d6000fd5b505050506040513d601f19601f820116820180604052508101906200073f919062001d40565b5060018201546000906200075d906001600160a01b03168662000af0565b60028401549091506000906200077d906001600160a01b03168762000af0565b60408051600280825260608201835292935060009290916020830190803683370190505090508281600081518110620007ba57620007ba62001e1e565b60200260200101906001600160a01b031690816001600160a01b0316815250508181600181518110620007f157620007f162001e1e565b6001600160a01b039283166020918202929092010152604051638bfc820f60e01b815290881690638bfc820f906200082e90849060040162001e34565b600060405180830381600087803b1580156200084957600080fd5b505af11580156200085e573d6000803e3d6000fd5b5060009250600191506200086f9050565b604051908082528060200260200182016040528015620008a457816020015b60608152602001906001900390816200088e5790505b509050604051806040016040528060098152602001684a6f696e537061636560b81b81525081600081518110620008df57620008df62001e1e565b60200260200101819052508960800151602001516000015115620009305762000929886040518060400160405280600681526020016526b4b73a32b960d11b815250838762000baf565b5062000968565b62000966886040518060400160405280600681526020016526b4b73a32b960d11b815250838d6080015160200151888862000cd6565b505b60008a60800151602001516060015115620009a85760808b01518051516040820151602090920151620009a0928c9291898962000cd6565b9050620009c7565b60808b0151805151604090910151620009c4918b918862000baf565b90505b620009d889828d60a0015162000ea5565b86548a51604051632142170760e11b81523060048201526001600160a01b039182166024820152604481018990529116906342842e0e90606401600060405180830381600087803b15801562000a2d57600080fd5b505af115801562000a42573d6000803e3d6000fd5b50505050886001600160a01b0316868b600001516001600160a01b03167fe50fc3942f8a2d7e5a7c8fb9488499eba5255b41e18bc3f1b4791402976d1d0b60405160405180910390a4505050505050505092915050565b6001600160a01b03811662000ac1576040516302e47d1560e41b815260040160405180910390fd5b50565b600080600062000ad686868662000fa6565b9150915062000ae6828262001139565b9695505050505050565b6000806040518060200162000b0590620012a4565b601f1982820381018352601f9091011660408190526001600160a01b0385166024820152859060440160408051601f19818403018152918152602080830180516001600160e01b031663189acdbd60e31b179052905162000b699392910162001e83565b60408051601f198184030181529082905262000b89929160200162001eb1565b604051602081830303815290604052905062000ba5816200115f565b9150505b92915050565b6040805160018082528183019092526000918291906020808301908036833701905050905060018160008151811062000bec5762000bec62001e1e565b6001600160a01b039290921660209283029190910190910152604080516001808252818301909252600091816020015b60408051808201909152600081526060602082015281526020019060019003908162000c1c579050509050838160008151811062000c5e5762000c5e62001e1e565b6020908102919091018101516001600160a01b0390921690915260405162000c899184910162001e34565b6040516020818303038152906040528160008151811062000cae5762000cae62001e1e565b60200260200101516020018190525062000ccb8787878462001189565b979650505050505050565b6020830151516040840151516000918291811562000cfc5762000cf98362001ee4565b92505b801562000d115762000d0e8362001ee4565b92505b6000836001600160401b0381111562000d2e5762000d2e620012c0565b60405190808252806020026020018201604052801562000d7657816020015b60408051808201909152600081526060602082015281526020019060019003908162000d4d5790505b5090506000831562000e345760005b8481101562000dc25762000db98a60200151828151811062000dab5762000dab62001e1e565b602002602001015162000a99565b60010162000d85565b506040518060400160405280896001600160a01b031681526020018a6020015160405160200162000df4919062001e34565b60408051601f198184030181529190529052828262000e138162001ee4565b93508151811062000e285762000e2862001e1e565b60200260200101819052505b821562000e87576040805180820182526001600160a01b0389168152908a01516020820152828262000e668162001ee4565b93508151811062000e7b5762000e7b62001e1e565b60200260200101819052505b62000e958c8c8c8562001189565b9c9b505050505050505050505050565b60408051600180825281830190925260009160208083019080368337019050509050828160008151811062000ede5762000ede62001e1e565b602090810291909101810191909152604051600160fd1b918101919091526bffffffffffffffffffffffff19606086901b16602182015260009060350160405160208183030381529060405262000f359062001f0c565b835160405163921f717560e01b81529192506001600160a01b0387169163921f71759162000f6b91859190879060040162001f34565b600060405180830381600087803b15801562000f8657600080fd5b505af115801562000f9b573d6000803e3d6000fd5b505050505050505050565b6060600062000fbe846000015161010001516200120d565b507f9e34afa7b4d27d347d25d9d9dab4f1a106fa081382e6c4243e834d093e787d005460408051602080820188905242828401524360608301526001600160a01b0393841660808084018290528451808503909101815260a0840194859052805192019190912087517f9e34afa7b4d27d347d25d9d9dab4f1a106fa081382e6c4243e834d093e787d0654919592949093919092169190620010639060c001620012b2565b601f19828203810183526040601f90920116818101825263dc9cc64560e01b81523060208281018290528a51845180860186526001600160a01b038a1681529182018e9052935192938693620010c193919290899060240162001f95565b60408051601f19818403018152918152602080830180516001600160e01b03166320723eff60e11b1790529051620010fd94939291016200207b565b60408051601f19818403018152908290526200111d929160200162001eb1565b6040516020818303038152906040529450505050935093915050565b60008260200183518381836000f5925050508062000ba95763ef35ca196000526004601cfd5b600081602001825180826000f09250505080620011845763ef35ca196000526004601cfd5b919050565b604051638fcd793d60e01b81526000906001600160a01b03861690638fcd793d90620011be90879087908790600401620020c2565b6020604051808303816000875af1158015620011de573d6000803e3d6000fd5b505050506040513d601f19601f8201168201806040525081019062001204919062001d40565b95945050505050565b6001600160a01b03811615806200122c57506200122a816200124b565b155b1562000ac157604051637e4248fd60e11b815260040160405180910390fd5b60007f6438323c68a77f029335e6433efb7c07e7cd1775df0c27e75bcd3591a8bc5d006200127a818462001281565b9392505050565b6001600160a01b038116600090815260018301602052604081205415156200127a565b6103d480620021b483390190565b61079e806200258883390190565b634e487b7160e01b600052604160045260246000fd5b604051608081016001600160401b0381118282101715620012fb57620012fb620012c0565b60405290565b60405161012081016001600160401b0381118282101715620012fb57620012fb620012c0565b604051602081016001600160401b0381118282101715620012fb57620012fb620012c0565b604051606081016001600160401b0381118282101715620012fb57620012fb620012c0565b60405160c081016001600160401b0381118282101715620012fb57620012fb620012c0565b604051601f8201601f191681016001600160401b0381118282101715620013c157620013c1620012c0565b604052919050565b600082601f830112620013db57600080fd5b81356001600160401b03811115620013f757620013f7620012c0565b6200140c601f8201601f191660200162001396565b8181528460208386010111156200142257600080fd5b816020850160208301376000918101602001919091529392505050565b6000608082840312156200145257600080fd5b6200145c620012d6565b905081356001600160401b03808211156200147657600080fd5b6200148485838601620013c9565b835260208401359150808211156200149b57600080fd5b620014a985838601620013c9565b60208401526040840135915080821115620014c357600080fd5b620014d185838601620013c9565b60408401526060840135915080821115620014eb57600080fd5b50620014fa84828501620013c9565b60608301525092915050565b80356001600160401b03811681146200118457600080fd5b80356001600160a01b03811681146200118457600080fd5b600061012082840312156200154a57600080fd5b6200155462001301565b905081356001600160401b03808211156200156e57600080fd5b6200157c85838601620013c9565b835260208401359150808211156200159357600080fd5b50620015a284828501620013c9565b6020830152506040820135604082015260608201356060820152620015ca6080830162001506565b6080820152620015dd60a083016200151e565b60a0820152620015f060c083016200151e565b60c082015260e082013560e08201526101006200160f8184016200151e565b9082015292915050565b803580151581146200118457600080fd5b60006001600160401b03821115620016465762001646620012c0565b5060051b60200190565b600082601f8301126200166257600080fd5b813560206200167b62001675836200162a565b62001396565b8083825260208201915060208460051b8701019350868411156200169e57600080fd5b602086015b84811015620016c557620016b7816200151e565b8352918301918301620016a3565b509695505050505050565b600082601f830112620016e257600080fd5b81356020620016f562001675836200162a565b82815260059290921b840181019181810190868411156200171557600080fd5b8286015b84811015620016c55780356001600160401b038111156200173a5760008081fd5b6200174a8986838b0101620013c9565b84525091830191830162001719565b6000602082840312156200176c57600080fd5b6200177662001327565b905081356001600160401b038111156200178f57600080fd5b6200179d84828501620013c9565b82525092915050565b600060208284031215620017b957600080fd5b620017c362001327565b9135825250919050565b60006020808385031215620017e157600080fd5b82356001600160401b0380821115620017f957600080fd5b90840190608082870312156200180e57600080fd5b62001818620012d6565b8235828111156200182857600080fd5b62001836888286016200143f565b82525083830135828111156200184b57600080fd5b8301606081890312156200185e57600080fd5b620018686200134c565b8135848111156200187857600080fd5b620018868a82850162001536565b82525085820135848111156200189b57600080fd5b82016060818b031215620018ae57600080fd5b620018b86200134c565b620018c38262001619565b81528782013586811115620018d757600080fd5b620018e58c82850162001650565b898301525060408083013587811115620018fe57600080fd5b6200190c8d828601620013c9565b82840152508189850152808501359250868311156200192a57600080fd5b620019388c848701620016d0565b818501528389870152808801359850868911156200195557600080fd5b620019638c8a8a0162001759565b8187015250505050506200197b8760608501620017a6565b60608201529695505050505050565b6000606082840312156200199d57600080fd5b620019a76200134c565b905081356001600160401b0380821115620019c157600080fd5b620019cf8583860162001536565b83526020840135915080821115620019e657600080fd5b9083019060808286031215620019fb57600080fd5b62001a05620012d6565b62001a108362001619565b815260208301358281111562001a2557600080fd5b62001a338782860162001650565b60208301525060408301358281111562001a4c57600080fd5b62001a5a87828601620013c9565b60408301525062001a6e6060840162001619565b60608201526020840152604084013591508082111562001a8d57600080fd5b5062001a9c84828501620016d0565b60408301525092915050565b60006080828403121562001abb57600080fd5b62001ac5620012d6565b905081356001600160401b038082111562001adf57600080fd5b62001aed858386016200143f565b8352602084013591508082111562001b0457600080fd5b62001b12858386016200198a565b6020840152604084013591508082111562001b2c57600080fd5b5062001b3b8482850162001759565b60408301525062001b508360608401620017a6565b606082015292915050565b60006020828403121562001b6e57600080fd5b81356001600160401b0381111562001b8557600080fd5b62000ba58482850162001aa8565b600080828403604081121562001ba857600080fd5b83356001600160401b0381111562001bbf57600080fd5b62001bcd8682870162001aa8565b9350506020601f198201121562001be357600080fd5b5062001bee62001327565b62001bfc602085016200151e565b8152809150509250929050565b60006020828403121562001c1c57600080fd5b81356001600160401b038082111562001c3457600080fd5b9083019060c0828603121562001c4957600080fd5b62001c5362001371565b82358281111562001c6357600080fd5b62001c7187828601620013c9565b82525060208301358281111562001c8757600080fd5b62001c9587828601620013c9565b60208301525060408301358281111562001cae57600080fd5b62001cbc87828601620013c9565b60408301525060608301358281111562001cd557600080fd5b62001ce387828601620013c9565b60608301525060808301358281111562001cfc57600080fd5b62001d0a878286016200198a565b60808301525060a08301358281111562001d2357600080fd5b62001d318782860162001759565b60a08301525095945050505050565b60006020828403121562001d5357600080fd5b5051919050565b60005b8381101562001d7757818101518382015260200162001d5d565b50506000910152565b6000815180845262001d9a81602086016020860162001d5a565b601f01601f19169290920160200192915050565b60a08152600062001dc360a083018862001d80565b828103602084015262001dd7818862001d80565b6001600160a01b03871660408501528381036060850152905062001dfc818662001d80565b9050828103608084015262001e12818562001d80565b98975050505050505050565b634e487b7160e01b600052603260045260246000fd5b6020808252825182820181905260009190848201906040850190845b8181101562001e775783516001600160a01b03168352928401929184019160010162001e50565b50909695505050505050565b6001600160a01b038316815260406020820181905260009062001ea99083018462001d80565b949350505050565b6000835162001ec581846020880162001d5a565b83519083019062001edb81836020880162001d5a565b01949350505050565b60006001820162001f0557634e487b7160e01b600052601160045260246000fd5b5060010190565b8051602080830151919081101562001f2e576000198160200360031b1b821691505b50919050565b838152600060206060602084015262001f51606084018662001d80565b83810360408501528451808252602080870192019060005b8181101562001f875783518352928401929184019160010162001f69565b509098975050505050505050565b600060018060a01b0380871683528086166020840152808551166040840152506020840151606083015260a0608083015282516101208060a085015262001fe16101c085018362001d80565b91506020850151609f198584030160c086015262002000838262001d80565b925050604085015160e0850152606085015161010081818701526080870151915062002036838701836001600160401b03169052565b60a08701516001600160a01b0390811661014088015260c0880151811661016088015260e0880151610180880152908701519081166101a08701529150620016c59050565b83516001600160e01b03191681526020808501516001600160a01b039081169183019190915283166040820152608060608201819052600090620012049083018462001d80565b606081526000620020d7606083018662001d80565b6020838203818501528186518084528284019150828160051b85010183890160005b838110156200212b57601f198784030185526200211883835162001d80565b94860194925090850190600101620020f9565b5050604094508681036040880152809250875191508181528381019250838260051b82010184890160005b84811015620021a257838303601f19018652815180516001600160a01b031684528701518784018990526200218e8985018262001d80565b968801969350509086019060010162002156565b50909b9a505050505050505050505056fe60806040526040516103d43803806103d483398101604081905261002291610268565b61002c8282610033565b5050610352565b61003c82610092565b6040516001600160a01b038316907fbc7cd75a20ee27fd9adebab32041f755214dbc6bffa90cc0225b39da2e5c2d3b90600090a280511561008657610081828261010e565b505050565b61008e610185565b5050565b806001600160a01b03163b6000036100cd57604051634c9c8ce360e01b81526001600160a01b03821660048201526024015b60405180910390fd5b7f360894a13ba1a3210667c828492db98dca3e2076cc3735a920a3ca505d382bbc80546001600160a01b0319166001600160a01b0392909216919091179055565b6060600080846001600160a01b03168460405161012b9190610336565b600060405180830381855af49150503d8060008114610166576040519150601f19603f3d011682016040523d82523d6000602084013e61016b565b606091505b50909250905061017c8583836101a6565b95945050505050565b34156101a45760405163b398979f60e01b815260040160405180910390fd5b565b6060826101bb576101b682610205565b6101fe565b81511580156101d257506001600160a01b0384163b155b156101fb57604051639996b31560e01b81526001600160a01b03851660048201526024016100c4565b50805b9392505050565b8051156102155780518082602001fd5b60405163d6bda27560e01b815260040160405180910390fd5b634e487b7160e01b600052604160045260246000fd5b60005b8381101561025f578181015183820152602001610247565b50506000910152565b6000806040838503121561027b57600080fd5b82516001600160a01b038116811461029257600080fd5b60208401519092506001600160401b03808211156102af57600080fd5b818501915085601f8301126102c357600080fd5b8151818111156102d5576102d561022e565b604051601f8201601f19908116603f011681019083821181831017156102fd576102fd61022e565b8160405282815288602084870101111561031657600080fd5b610327836020830160208801610244565b80955050505050509250929050565b60008251610348818460208701610244565b9190910192915050565b6074806103606000396000f3fe6080604052600a600c565b005b60186014601a565b6051565b565b6000604c7f360894a13ba1a3210667c828492db98dca3e2076cc3735a920a3ca505d382bbc546001600160a01b031690565b905090565b3660008037600080366000845af43d6000803e808015606f573d6000f35b3d6000fd608060405234801561001057600080fd5b5060405161079e38038061079e83398101604081905261002f91610259565b6100958380517f9c16cba5b9f2fcbd952b38bec34079e93cbe107475c15fc20705f4e704198a0080546020909301516001600160a01b03166001600160a01b031960e09390931c600160a01b02929092166001600160c01b031990931692909217179055565b61009f82826100a8565b50505050610366565b6060600080846001600160a01b0316846040516100c5919061034a565b600060405180830381855af49150503d8060008114610100576040519150601f19603f3d011682016040523d82523d6000602084013e610105565b606091505b50909250905061011685838361011f565b95945050505050565b6060826101345761012f82610182565b61017b565b815115801561014b57506001600160a01b0384163b155b1561017857604051639996b31560e01b81526001600160a01b038516600482015260240160405180910390fd5b50805b9392505050565b8051156101925780518082602001fd5b60405163d6bda27560e01b815260040160405180910390fd5b634e487b7160e01b600052604160045260246000fd5b604080519081016001600160401b03811182821017156101e3576101e36101ab565b60405290565b604051601f8201601f191681016001600160401b0381118282101715610211576102116101ab565b604052919050565b80516001600160a01b038116811461023057600080fd5b919050565b60005b83811015610250578181015183820152602001610238565b50506000910152565b6000806000838503608081121561026f57600080fd5b604081121561027d57600080fd5b506102866101c1565b84516001600160e01b03198116811461029e57600080fd5b815260206102ad868201610219565b818301528194506102c060408701610219565b606087015190945091506001600160401b03808311156102df57600080fd5b828701925087601f8401126102f357600080fd5b825181811115610305576103056101ab565b610317601f8201601f191684016101e9565b9150808252888382860101111561032d57600080fd5b61033c81848401858701610235565b508093505050509250925092565b6000825161035c818460208701610235565b9190910192915050565b610429806103756000396000f3fe6080604052600436106100225760003560e01c8063ac9650d81461003357610029565b3661002957005b61003161005c565b005b6100466100413660046102ca565b6100b7565b6040516100539190610363565b60405180910390f35b60006100666100dc565b9050806001600160a01b03163b600003610093576040516321f27f0d60e21b815260040160405180910390fd5b3660008037600080366000845af43d6000803e8080156100b2573d6000f35b3d6000fd5b606034156100c457600080fd5b6100d66100d18484610222565b6102b9565b92915050565b7f9c16cba5b9f2fcbd952b38bec34079e93cbe107475c15fc20705f4e704198a0054600090600160a01b900460e01b818061013e7f9c16cba5b9f2fcbd952b38bec34079e93cbe107475c15fc20705f4e704198a00546001600160a01b031690565b6040516001600160e01b03196000351660248201526001600160a01b039190911690849060440160408051601f198184030181529181526020820180516001600160e01b03166001600160e01b03199094169390931790925290516101a391906103dd565b600060405180830381855afa9150503d80600081146101de576040519150601f19603f3d011682016040523d82523d6000602084013e6101e3565b606091505b5091509150816102065760405163391aa44560e01b815260040160405180910390fd5b8080602001905181019061021a91906103f9565b935050505090565b600060405190506020815281816020015280604001808360051b8086843782018085156102a1575b835187018035602082018337600038823584305af461026c573d6000873e3d86fd5b5082810384523d815260209384019381013d6000823e60003d8201523d01601f0167ffffffffffffffe016905081841061024a575b806040528485820360401b1794505050505092915050565b8060401c8167ffffffffffffffff16f35b600080602083850312156102dd57600080fd5b823567ffffffffffffffff808211156102f557600080fd5b818501915085601f83011261030957600080fd5b81358181111561031857600080fd5b8660208260051b850101111561032d57600080fd5b60209290920196919550909350505050565b60005b8381101561035a578181015183820152602001610342565b50506000910152565b6000602080830181845280855180835260408601915060408160051b870101925083870160005b828110156103d057878503603f19018452815180518087526103b1818989018a850161033f565b601f01601f19169590950186019450928501929085019060010161038a565b5092979650505050505050565b600082516103ef81846020870161033f565b9190910192915050565b60006020828403121561040b57600080fd5b81516001600160a01b038116811461042257600080fd5b939250505056e17a067c7963a59b6dfd65d33b053fdbea1c56500e2aae4f976d9eda4da9eb00","linkReferences":{}},"methodIdentifiers":{"__CreateSpace_init()":"162dc0d7","createSpace((string,string,string,string,((string,string,uint256,uint256,uint64,address,address,uint256,address),(bool,address[],bytes,bool),string[]),(string)))":"f822028d","createSpaceV2(((string,string,string,string),((string,string,uint256,uint256,uint64,address,address,uint256,address),(bool,address[],bytes,bool),string[]),(string),(uint256)),(address))":"e0d1ce8f","createSpaceWithPrepay(((string,string,string,string),((string,string,uint256,uint256,uint64,address,address,uint256,address),(bool,address[],bytes),string[]),(string),(uint256)))":"c07ed896","createSpaceWithPrepay(((string,string,string,string),((string,string,uint256,uint256,uint64,address,address,uint256,address),(bool,address[],bytes,bool),string[]),(string),(uint256)))":"cd55d94c"},"id":182}